{
  "contractName": "Todo",
  "abi": [
    {
      "inputs": [],
      "stateMutability": "nonpayable",
      "type": "constructor"
    },
    {
      "anonymous": false,
      "inputs": [
        {
          "indexed": false,
          "internalType": "address",
          "name": "owner",
          "type": "address"
        },
        {
          "indexed": false,
          "internalType": "string",
          "name": "task",
          "type": "string"
        }
      ],
      "name": "AddTask",
      "type": "event"
    },
    {
      "anonymous": false,
      "inputs": [
        {
          "indexed": false,
          "internalType": "address",
          "name": "owner",
          "type": "address"
        },
        {
          "indexed": false,
          "internalType": "uint32",
          "name": "taskId",
          "type": "uint32"
        }
      ],
      "name": "DeleteTask",
      "type": "event"
    },
    {
      "anonymous": false,
      "inputs": [
        {
          "indexed": false,
          "internalType": "address",
          "name": "owner",
          "type": "address"
        },
        {
          "indexed": false,
          "internalType": "uint32",
          "name": "taskId",
          "type": "uint32"
        },
        {
          "indexed": false,
          "internalType": "string",
          "name": "task",
          "type": "string"
        }
      ],
      "name": "EditTask",
      "type": "event"
    },
    {
      "anonymous": false,
      "inputs": [
        {
          "indexed": false,
          "internalType": "address",
          "name": "owner",
          "type": "address"
        },
        {
          "indexed": false,
          "internalType": "uint32",
          "name": "taskId",
          "type": "uint32"
        }
      ],
      "name": "MarkCompleted",
      "type": "event"
    },
    {
      "inputs": [
        {
          "internalType": "uint256",
          "name": "",
          "type": "uint256"
        }
      ],
      "name": "todoArray",
      "outputs": [
        {
          "internalType": "string",
          "name": "",
          "type": "string"
        }
      ],
      "stateMutability": "view",
      "type": "function",
      "constant": true
    },
    {
      "inputs": [],
      "name": "todoCount",
      "outputs": [
        {
          "internalType": "uint32",
          "name": "",
          "type": "uint32"
        }
      ],
      "stateMutability": "view",
      "type": "function",
      "constant": true
    },
    {
      "inputs": [
        {
          "internalType": "address",
          "name": "",
          "type": "address"
        },
        {
          "internalType": "uint256",
          "name": "",
          "type": "uint256"
        }
      ],
      "name": "todoMapping",
      "outputs": [
        {
          "internalType": "uint32",
          "name": "id",
          "type": "uint32"
        },
        {
          "internalType": "string",
          "name": "name",
          "type": "string"
        },
        {
          "internalType": "bool",
          "name": "completed",
          "type": "bool"
        }
      ],
      "stateMutability": "view",
      "type": "function",
      "constant": true
    },
    {
      "inputs": [
        {
          "internalType": "string",
          "name": "todoContent",
          "type": "string"
        }
      ],
      "name": "Add",
      "outputs": [],
      "stateMutability": "nonpayable",
      "type": "function"
    },
    {
      "inputs": [
        {
          "internalType": "address",
          "name": "_address",
          "type": "address"
        }
      ],
      "name": "Get",
      "outputs": [
        {
          "components": [
            {
              "internalType": "uint32",
              "name": "id",
              "type": "uint32"
            },
            {
              "internalType": "string",
              "name": "name",
              "type": "string"
            },
            {
              "internalType": "bool",
              "name": "completed",
              "type": "bool"
            }
          ],
          "internalType": "struct Todo.ToDoItem[]",
          "name": "todolist",
          "type": "tuple[]"
        }
      ],
      "stateMutability": "view",
      "type": "function",
      "constant": true
    },
    {
      "inputs": [
        {
          "internalType": "uint32",
          "name": "taskId",
          "type": "uint32"
        }
      ],
      "name": "Delete",
      "outputs": [],
      "stateMutability": "nonpayable",
      "type": "function"
    },
    {
      "inputs": [
        {
          "internalType": "uint32",
          "name": "taskId",
          "type": "uint32"
        }
      ],
      "name": "MarkComplete",
      "outputs": [],
      "stateMutability": "nonpayable",
      "type": "function"
    },
    {
      "inputs": [
        {
          "internalType": "uint32",
          "name": "taskId",
          "type": "uint32"
        },
        {
          "internalType": "string",
          "name": "taskContent",
          "type": "string"
        }
      ],
      "name": "Edit",
      "outputs": [],
      "stateMutability": "nonpayable",
      "type": "function"
    }
  ],
  "bytecode": "0x60806040523480156200001157600080fd5b506000600260006101000a81548163ffffffff021916908363ffffffff1602179055506200007a6040518060400160405280600381526020017f45617400000000000000000000000000000000000000000000000000000000008152506200010c60201b60201c565b620000c06040518060400160405280600481526020017f436f6465000000000000000000000000000000000000000000000000000000008152506200010c60201b60201c565b620001066040518060400160405280600581526020017f536c6565700000000000000000000000000000000000000000000000000000008152506200010c60201b60201c565b62000565565b600060405180606001604052806002600081819054906101000a900463ffffffff16809291906200013d90620003b1565b91906101000a81548163ffffffff021916908363ffffffff16021790555063ffffffff1681526020018381526020016000151581525090506000803373ffffffffffffffffffffffffffffffffffffffff1673ffffffffffffffffffffffffffffffffffffffff16815260200190815260200160002081908060018154018082558091505060019003906000526020600020906003020160009091909190915060008201518160000160006101000a81548163ffffffff021916908363ffffffff160217905550602082015181600101908051906020019062000222929190620002c2565b5060408201518160020160006101000a81548160ff021916908315150217905550505060018290806001815401808255809150506001900390600052602060002001600090919091909150908051906020019062000282929190620002c2565b507fa8c0af814eaae0292ce82511a463a7dd0bd173bf1373d15019aab89d499294ca3383604051620002b6929190620004cc565b60405180910390a15050565b828054620002d0906200052f565b90600052602060002090601f016020900481019282620002f4576000855562000340565b82601f106200030f57805160ff191683800117855562000340565b8280016001018555821562000340579182015b828111156200033f57825182559160200191906001019062000322565b5b5090506200034f919062000353565b5090565b5b808211156200036e57600081600090555060010162000354565b5090565b7f4e487b7100000000000000000000000000000000000000000000000000000000600052601160045260246000fd5b600063ffffffff82169050919050565b6000620003be82620003a1565b915063ffffffff821415620003d857620003d762000372565b5b600182019050919050565b600073ffffffffffffffffffffffffffffffffffffffff82169050919050565b60006200041082620003e3565b9050919050565b620004228162000403565b82525050565b600081519050919050565b600082825260208201905092915050565b60005b838110156200046457808201518184015260208101905062000447565b8381111562000474576000848401525b50505050565b6000601f19601f8301169050919050565b6000620004988262000428565b620004a4818562000433565b9350620004b681856020860162000444565b620004c1816200047a565b840191505092915050565b6000604082019050620004e3600083018562000417565b8181036020830152620004f781846200048b565b90509392505050565b7f4e487b7100000000000000000000000000000000000000000000000000000000600052602260045260246000fd5b600060028204905060018216806200054857607f821691505b602082108114156200055f576200055e62000500565b5b50919050565b6117f780620005756000396000f3fe608060405234801561001057600080fd5b50600436106100885760003560e01c8063a9525ddd1161005b578063a9525ddd14610111578063b4ab2e711461012d578063d5298b5b1461015d578063fe0dee171461018f57610088565b8063064152b21461008d57806338513517146100a9578063460c263c146100d9578063972b5835146100f5575b600080fd5b6100a760048036038101906100a29190610f95565b6101ad565b005b6100c360048036038101906100be9190611014565b61035b565b6040516100d091906110c9565b60405180910390f35b6100f360048036038101906100ee9190611127565b610407565b005b61010f600480360381019061010a9190611127565b6107a4565b005b61012b600480360381019061012691906111b4565b6108bd565b005b61014760048036038101906101429190611272565b6109d3565b6040516101549190611425565b60405180910390f35b61017760048036038101906101729190611447565b610b43565b604051610186939291906114a5565b60405180910390f35b610197610c2f565b6040516101a491906114e3565b60405180910390f35b600060405180606001604052806002600081819054906101000a900463ffffffff16809291906101dc9061152d565b91906101000a81548163ffffffff021916908363ffffffff16021790555063ffffffff1681526020018381526020016000151581525090506000803373ffffffffffffffffffffffffffffffffffffffff1673ffffffffffffffffffffffffffffffffffffffff16815260200190815260200160002081908060018154018082558091505060019003906000526020600020906003020160009091909190915060008201518160000160006101000a81548163ffffffff021916908363ffffffff16021790555060208201518160010190805190602001906102bf929190610c45565b5060408201518160020160006101000a81548160ff021916908315150217905550505060018290806001815401808255809150506001900390600052602060002001600090919091909150908051906020019061031d929190610c45565b507fa8c0af814eaae0292ce82511a463a7dd0bd173bf1373d15019aab89d499294ca338360405161034f929190611569565b60405180910390a15050565b6001818154811061036b57600080fd5b906000526020600020016000915090508054610386906115c8565b80601f01602080910402602001604051908101604052809291908181526020018280546103b2906115c8565b80156103ff5780601f106103d4576101008083540402835291602001916103ff565b820191906000526020600020905b8154815290600101906020018083116103e257829003601f168201915b505050505081565b60008060003373ffffffffffffffffffffffffffffffffffffffff1673ffffffffffffffffffffffffffffffffffffffff168152602001908152602001600020905060008180549050905060005b8181101561079e576000838281548110610472576104716115fa565b5b90600052602060002090600302016040518060600160405290816000820160009054906101000a900463ffffffff1663ffffffff1663ffffffff1681526020016001820180546104c1906115c8565b80601f01602080910402602001604051908101604052809291908181526020018280546104ed906115c8565b801561053a5780601f1061050f5761010080835404028352916020019161053a565b820191906000526020600020905b81548152906001019060200180831161051d57829003601f168201915b505050505081526020016002820160009054906101000a900460ff16151515158152505090508463ffffffff16816000015163ffffffff16141561078a5760008290505b60018461058b9190611629565b81101561067a57846001826105a0919061165d565b815481106105b1576105b06115fa565b5b90600052602060002090600302018582815481106105d2576105d16115fa565b5b90600052602060002090600302016000820160009054906101000a900463ffffffff168160000160006101000a81548163ffffffff021916908363ffffffff160217905550600182018160010190805461062b906115c8565b610636929190610ccb565b506002820160009054906101000a900460ff168160020160006101000a81548160ff0219169083151502179055509050508080610672906116b3565b91505061057e565b50836001846106899190611629565b8154811061069a576106996115fa565b5b9060005260206000209060030201600080820160006101000a81549063ffffffff02191690556001820160006106d09190610d58565b6002820160006101000a81549060ff02191690555050838054806106f7576106f66116fc565b5b6001900381819060005260206000209060030201600080820160006101000a81549063ffffffff02191690556001820160006107339190610d58565b6002820160006101000a81549060ff0219169055505090557f3e9a6744dc88b1dfd633ce36db90fdad49479c9394e8b2e3fabe3ea2c409aab1338660405161077c92919061172b565b60405180910390a15061079e565b508080610796906116b3565b915050610455565b50505050565b60008060003373ffffffffffffffffffffffffffffffffffffffff1673ffffffffffffffffffffffffffffffffffffffff168152602001908152602001600020905060008180549050905060005b818110156108b757600083828154811061080f5761080e6115fa565b5b906000526020600020906003020190508463ffffffff168160000160009054906101000a900463ffffffff1663ffffffff1614156108a35760018160020160006101000a81548160ff0219169083151502179055507f0931c89018ec7473070be80ce258a3d79b63599cece97d4fa7eb4258bd9eaa4b338660405161089592919061172b565b60405180910390a1506108b7565b5080806108af906116b3565b9150506107f2565b50505050565b60008060003373ffffffffffffffffffffffffffffffffffffffff1673ffffffffffffffffffffffffffffffffffffffff168152602001908152602001600020905060008180549050905060005b818110156109cb576000838281548110610928576109276115fa565b5b906000526020600020906003020190508663ffffffff168160000160009054906101000a900463ffffffff1663ffffffff1614156109b7578585826001019190610973929190610d98565b507f641083ba0b56572845e5123c2c6812009fc5a80cbf00e5f8bf1bed02055973d2338888886040516109a99493929190611781565b60405180910390a1506109cb565b5080806109c3906116b3565b91505061090b565b505050505050565b60606000808373ffffffffffffffffffffffffffffffffffffffff1673ffffffffffffffffffffffffffffffffffffffff168152602001908152602001600020805480602002602001604051908101604052809291908181526020016000905b82821015610b3857838290600052602060002090600302016040518060600160405290816000820160009054906101000a900463ffffffff1663ffffffff1663ffffffff168152602001600182018054610a8c906115c8565b80601f0160208091040260200160405190810160405280929190818152602001828054610ab8906115c8565b8015610b055780601f10610ada57610100808354040283529160200191610b05565b820191906000526020600020905b815481529060010190602001808311610ae857829003601f168201915b505050505081526020016002820160009054906101000a900460ff16151515158152505081526020019060010190610a33565b505050509050919050565b60006020528160005260406000208181548110610b5f57600080fd5b9060005260206000209060030201600091509150508060000160009054906101000a900463ffffffff1690806001018054610b99906115c8565b80601f0160208091040260200160405190810160405280929190818152602001828054610bc5906115c8565b8015610c125780601f10610be757610100808354040283529160200191610c12565b820191906000526020600020905b815481529060010190602001808311610bf557829003601f168201915b5050505050908060020160009054906101000a900460ff16905083565b600260009054906101000a900463ffffffff1681565b828054610c51906115c8565b90600052602060002090601f016020900481019282610c735760008555610cba565b82601f10610c8c57805160ff1916838001178555610cba565b82800160010185558215610cba579182015b82811115610cb9578251825591602001919060010190610c9e565b5b509050610cc79190610e1e565b5090565b828054610cd7906115c8565b90600052602060002090601f016020900481019282610cf95760008555610d47565b82601f10610d0a5780548555610d47565b82800160010185558215610d4757600052602060002091601f016020900482015b82811115610d46578254825591600101919060010190610d2b565b5b509050610d549190610e1e565b5090565b508054610d64906115c8565b6000825580601f10610d765750610d95565b601f016020900490600052602060002090810190610d949190610e1e565b5b50565b828054610da4906115c8565b90600052602060002090601f016020900481019282610dc65760008555610e0d565b82601f10610ddf57803560ff1916838001178555610e0d565b82800160010185558215610e0d579182015b82811115610e0c578235825591602001919060010190610df1565b5b509050610e1a9190610e1e565b5090565b5b80821115610e37576000816000905550600101610e1f565b5090565b6000604051905090565b600080fd5b600080fd5b600080fd5b600080fd5b6000601f19601f8301169050919050565b7f4e487b7100000000000000000000000000000000000000000000000000000000600052604160045260246000fd5b610ea282610e59565b810181811067ffffffffffffffff82111715610ec157610ec0610e6a565b5b80604052505050565b6000610ed4610e3b565b9050610ee08282610e99565b919050565b600067ffffffffffffffff821115610f0057610eff610e6a565b5b610f0982610e59565b9050602081019050919050565b82818337600083830152505050565b6000610f38610f3384610ee5565b610eca565b905082815260208101848484011115610f5457610f53610e54565b5b610f5f848285610f16565b509392505050565b600082601f830112610f7c57610f7b610e4f565b5b8135610f8c848260208601610f25565b91505092915050565b600060208284031215610fab57610faa610e45565b5b600082013567ffffffffffffffff811115610fc957610fc8610e4a565b5b610fd584828501610f67565b91505092915050565b6000819050919050565b610ff181610fde565b8114610ffc57600080fd5b50565b60008135905061100e81610fe8565b92915050565b60006020828403121561102a57611029610e45565b5b600061103884828501610fff565b91505092915050565b600081519050919050565b600082825260208201905092915050565b60005b8381101561107b578082015181840152602081019050611060565b8381111561108a576000848401525b50505050565b600061109b82611041565b6110a5818561104c565b93506110b581856020860161105d565b6110be81610e59565b840191505092915050565b600060208201905081810360008301526110e38184611090565b905092915050565b600063ffffffff82169050919050565b611104816110eb565b811461110f57600080fd5b50565b600081359050611121816110fb565b92915050565b60006020828403121561113d5761113c610e45565b5b600061114b84828501611112565b91505092915050565b600080fd5b600080fd5b60008083601f84011261117457611173610e4f565b5b8235905067ffffffffffffffff81111561119157611190611154565b5b6020830191508360018202830111156111ad576111ac611159565b5b9250929050565b6000806000604084860312156111cd576111cc610e45565b5b60006111db86828701611112565b935050602084013567ffffffffffffffff8111156111fc576111fb610e4a565b5b6112088682870161115e565b92509250509250925092565b600073ffffffffffffffffffffffffffffffffffffffff82169050919050565b600061123f82611214565b9050919050565b61124f81611234565b811461125a57600080fd5b50565b60008135905061126c81611246565b92915050565b60006020828403121561128857611287610e45565b5b60006112968482850161125d565b91505092915050565b600081519050919050565b600082825260208201905092915050565b6000819050602082019050919050565b6112d4816110eb565b82525050565b600082825260208201905092915050565b60006112f682611041565b61130081856112da565b935061131081856020860161105d565b61131981610e59565b840191505092915050565b60008115159050919050565b61133981611324565b82525050565b600060608301600083015161135760008601826112cb565b506020830151848203602086015261136f82826112eb565b91505060408301516113846040860182611330565b508091505092915050565b600061139b838361133f565b905092915050565b6000602082019050919050565b60006113bb8261129f565b6113c581856112aa565b9350836020820285016113d7856112bb565b8060005b8581101561141357848403895281516113f4858261138f565b94506113ff836113a3565b925060208a019950506001810190506113db565b50829750879550505050505092915050565b6000602082019050818103600083015261143f81846113b0565b905092915050565b6000806040838503121561145e5761145d610e45565b5b600061146c8582860161125d565b925050602061147d85828601610fff565b9150509250929050565b611490816110eb565b82525050565b61149f81611324565b82525050565b60006060820190506114ba6000830186611487565b81810360208301526114cc8185611090565b90506114db6040830184611496565b949350505050565b60006020820190506114f86000830184611487565b92915050565b7f4e487b7100000000000000000000000000000000000000000000000000000000600052601160045260246000fd5b6000611538826110eb565b915063ffffffff82141561154f5761154e6114fe565b5b600182019050919050565b61156381611234565b82525050565b600060408201905061157e600083018561155a565b81810360208301526115908184611090565b90509392505050565b7f4e487b7100000000000000000000000000000000000000000000000000000000600052602260045260246000fd5b600060028204905060018216806115e057607f821691505b602082108114156115f4576115f3611599565b5b50919050565b7f4e487b7100000000000000000000000000000000000000000000000000000000600052603260045260246000fd5b600061163482610fde565b915061163f83610fde565b925082821015611652576116516114fe565b5b828203905092915050565b600061166882610fde565b915061167383610fde565b9250827fffffffffffffffffffffffffffffffffffffffffffffffffffffffffffffffff038211156116a8576116a76114fe565b5b828201905092915050565b60006116be82610fde565b91507fffffffffffffffffffffffffffffffffffffffffffffffffffffffffffffffff8214156116f1576116f06114fe565b5b600182019050919050565b7f4e487b7100000000000000000000000000000000000000000000000000000000600052603160045260246000fd5b6000604082019050611740600083018561155a565b61174d6020830184611487565b9392505050565b6000611760838561104c565b935061176d838584610f16565b61177683610e59565b840190509392505050565b6000606082019050611796600083018761155a565b6117a36020830186611487565b81810360408301526117b6818486611754565b90509594505050505056fea26469706673582212207c203ed0ea5679b4c1ac18507e92b0cef456a427434da65322bf2cc74f7629c064736f6c634300080a0033",
  "immutableReferences": {},
  "source": "// SPDX-License-Identifier: MIT\r\npragma solidity >=0.4.22 <0.9.0;\r\n\r\ncontract Todo {\r\n    mapping(address => ToDoItem[]) public todoMapping;\r\n    string[] public todoArray;\r\n    uint32 public todoCount;\r\n\r\n    event AddTask(address owner, string task);\r\n    event EditTask(address owner, uint32 taskId, string task);\r\n    event DeleteTask(address owner, uint32 taskId);\r\n    event MarkCompleted(address owner, uint32 taskId);\r\n\r\n    struct ToDoItem {\r\n        uint32 id;\r\n        string name;\r\n        bool completed;\r\n    }\r\n\r\n    constructor() {\r\n        todoCount = 0;\r\n        Add(\"Eat\");\r\n        Add(\"Code\");\r\n        Add(\"Sleep\");\r\n    }\r\n\r\n    function Add(string memory todoContent) public {\r\n        ToDoItem memory task = ToDoItem(todoCount++, todoContent, false);\r\n\r\n        todoMapping[msg.sender].push(task);\r\n        todoArray.push(todoContent);\r\n\r\n        emit AddTask(msg.sender, todoContent);\r\n    }\r\n\r\n    function Get(address _address)\r\n        public\r\n        view\r\n        returns (ToDoItem[] memory todolist)\r\n    {\r\n        return todoMapping[_address];\r\n    }\r\n\r\n    function Delete(uint32 taskId) public {\r\n        ToDoItem[] storage tasksOfUser = todoMapping[msg.sender];\r\n        uint256 length = tasksOfUser.length;\r\n\r\n        for (uint256 index = 0; index < length; index++) {\r\n            ToDoItem memory task = tasksOfUser[index];\r\n            if (task.id == taskId) {\r\n                for (uint256 i = index; i < length - 1; i++) {\r\n                    tasksOfUser[i] = tasksOfUser[i + 1];\r\n                }\r\n                delete tasksOfUser[length - 1];\r\n                tasksOfUser.pop();\r\n                emit DeleteTask(msg.sender, taskId);\r\n                break;\r\n            }\r\n        }\r\n    }\r\n\r\n    function MarkComplete(uint32 taskId) public {\r\n        ToDoItem[] storage tasksOfUser = todoMapping[msg.sender];\r\n        uint256 length = tasksOfUser.length;\r\n\r\n        for (uint256 index = 0; index < length; index++) {\r\n            ToDoItem storage task = tasksOfUser[index];\r\n            if (task.id == taskId) \r\n            {\r\n                task.completed = true;\r\n                emit MarkCompleted(msg.sender, taskId);\r\n                break;\r\n            }\r\n        }\r\n    }\r\n\r\n    function Edit(uint32 taskId, string calldata taskContent) public {\r\n        ToDoItem[] storage tasksOfUser = todoMapping[msg.sender];\r\n        uint256 length = tasksOfUser.length;\r\n\r\n        for (uint256 index = 0; index < length; index++) {\r\n            ToDoItem storage task = tasksOfUser[index];\r\n            if (task.id == taskId) \r\n            {\r\n                task.name = taskContent;\r\n                emit EditTask(msg.sender, taskId, taskContent);\r\n                break;\r\n            }\r\n        }\r\n    }\r\n}\r\n",
  "sourcePath": "d:\\repo\\github.pp\\dapp-todo\\contracts\\Todo.sol",
  "compiler": {
    "name": "solc",
    "version": "0.8.10+commit.fc410830.Emscripten.clang"
  },
  "schemaVersion": "3.4.4",
  "updatedAt": "2022-01-13T05:50:49.448Z",
  "networkType": "ethereum",
  "devdoc": {
    "kind": "dev",
    "methods": {},
    "version": 1
  },
  "userdoc": {
    "kind": "user",
    "methods": {},
    "version": 1
  }
}